:020000040000FA
:060000007DEF19F0120073
:0600080004EF04F01200F9
:060018000CEF04F01200E1
:060800007DEF19F012006B
:0608080069EF0CF0120084
:06081800B4EF0CF0120029
:06082A0002005333000040
:10083000F2000000080000002633000080010000E4
:040840002D00000087
:0C084400D9CFE6FFE1CFD9FFE6526A6A87
:10085000686A160E6F6E9F0E6B6E7B0E696E6D8CE6
:100860006E6A000EE66EE66AE66A710EE66E0F0EBE
:10087000E66E1FEC19F0106E050EE15E10506D9CD7
:10088000DF6ADF50106E116A080E105C000E1158FE
:1008900010E2DF50040DF3CFE9FFF4CFEAFF000EC2
:1008A000E926040EEA22EE6AEE6AEE6AEE6ADF2AB2
:1008B000E8D7160E706E68A602D06896FCD70101C4
:1008C000C06BC56BC66BC76B6D98080EB86F040E16
:1008D000B96FAE6BAD6BE552E552E7CFD9FF1200B1
:1008E000D9CFE6FFE1CFD9FFE6520101AD0507E11F
:1008F0006DBA05D0686A69806988020EAD6F68506C
:10090000040B05E06950040B02E06894B5D86DA2B1
:1009100002D0A19A81D06850010B12E06950010BFE
:100920000FE090DF0101040EAD6F0401200E026F95
:10093000040E036F080E016F006B8C0E001368909D
:100940006850100B05E06950100B02E083D86898DE
:100950006850400B13E06950400B10E0010EE66E4A
:10096000E66A000EE66EE66A730EE66EE66AF2EC82
:1009700012F0106E060EE15E1050689C6850200B5D
:1009800004E06950200B01E04CD86850020B12E0E3
:100990006950020B0FE0010EE66EE66A000EE66E8D
:1009A000E66AE668E668F2EC12F0106E060EE15EAA
:1009B00010506A6A040E0101E76EAD19E8AE02D06C
:1009C000E73402D0E750AD5D02E2A19A25D069A6D6
:1009D00022D0DF6A040EDF5C1EE268A61BD06CCF5B
:1009E000CDF16896780E0101CD1502E15AD810D0EC
:1009F000000EE66EE66ACD0EE66E010EE66E720E33
:100A0000E66EE66AF2EC12F0106E060EE15E105031
:100A1000DF2AE0D700D0A19AE552E552E7CFD9FF0F
:100A2000120070A015D0B0C1E9FFB1C1EAFFEF50CC
:100A300080080DE1B8C1E9FFB9C1EAFFEF508408B1
:100A400006E1B0C1E9FFB1C1EAFF8C0EEF6E709014
:100A5000689A1200698468986D82000EE66EE66AF4
:100A6000E66EE66A750EE66EE66AF2EC12F0106E5D
:100A7000060EE15E10501200000EE66EE66AE66EAB
:100A8000E66A740EE66EE66AF2EC12F0106E060E7E
:100A9000E15E10506D92699468A402D06894FCD70E
:100AA0001200D9CFE6FFE1CFD9FFE652FD0E0101DA
:100AB000CD155AE17E0ECD15E8407F0B040DF3CF26
:100AC000B0F1F4CFB1F1000EB027040EB123B0C1E4
:100AD000B2F1B1C1B3F1B275B0C1E9FFB1C1EAFF82
:100AE000EF503C0BE842E8420D083CE1B0C1E9FFA1
:100AF000B1C1EAFF020EE926000EEA22EECF10F0A5
:100B0000EFCF11F0280E101802E1040E111828E1A1
:100B1000B0C1E9FFB1C1EAFF020EE926000EEA22E8
:100B2000200EEE6E040EED6EDF6ADF50106E116A5D
:100B3000080E105C000E115813E2DF50EA6A280F0D
:100B4000E96E040EEA22EF50E66EDF50EA6A200FEB
:100B5000E96E040EEA22E552E750EF6EDF2AE5D790
:100B60000DD801D02ED805D0FD0ECD15040801E119
:100B70004ED8E552E552E7CFD9FF1200B8C1E9FFE0
:100B8000B9C1EAFFEF50800B05E0B8C1E9FFB9C178
:100B9000EAFFEF6A0101BC6BBD6BC16BC26BC06B3E
:100BA000B6D8000EE66EE66AE66EE66A030EE66EFC
:100BB000E66AF2EC12F0106E060EE15E105033EFB2
:100BC00008F0020E0101BD5D02E1ADDB1FD06CD863
:100BD0000101CE511AE1B2C1E9FFB3C1EAFFEE5201
:100BE000080EEF6EB2C1E9FFB3C1EAFF020EE926BB
:100BF000000EEA22200EEE6E040EED6EB2C1E9FF89
:100C0000B3C1EAFF8C0EEF6E01D0CE6B1200D9CFCC
:100C1000E6FFE1CFD9FFE652B8C1E9FFB9C1EAFF6B
:100C2000EF50400B01E0010EDF6E0101B875080EB8
:100C3000AD5D0AE122C46EFF6E50000803E2100EA3
:100C4000AD6F02D0040EAD6FBD0528E1B8C1E9FF5C
:100C5000B9C1EAFF020EE926000EEA22280EEE6E66
:100C6000040EED6ED5DA020E0101BC5D07E1B8C1DC
:100C7000E9FFB9C1EAFF840EEF6E0FD0DF5007E144
:100C8000B8C1E9FFB9C1EAFFC80EEF6E06D0B8C11E
:100C9000E9FFB9C1EAFF880EEF6E01D005D8E55231
:100CA000E552E7CFD9FF1200D9CFE6FFE1CFD9FF58
:100CB000020EE1260101BD6BB8C1E9FFB9C1EAFF2F
:100CC000EF6A040EB819106EB9C111F010C0DEFF42
:100CD00011C0DDFFDECFE9FFDDCFEAFFEF6AC5AF70
:100CE0000CD0C851C91107E005D0C9C1FAFF0101F4
:100CF000C851F96EFADF0101C59F020EE15C02E204
:100D0000E16AE552E16EE552E7CFD9FF1200040136
:100D10002051600BE842E842E842E842E84200091C
:100D200001E058D021510C0A54E00B0A43E00C0AB0
:100D300035E0010A26E00B0A22E0020A20E0030A5D
:100D40001CE0080A10E0010A0CE00F0A08E0030AA0
:100D500001E03FD00101C08F080EAD6F3BD0C8D875
:100D600039D07FDB37D00101AE0EBE6F010EBF6FF1
:100D7000C081010EC16FC08F2DD014D92BD02BD8BC
:100D800029D024510101BE6FBF6BAF0EBE27010EEB
:100D9000BF23C081010EC16FC08F1CD00101C08F65
:100DA00004012451EA6AAF0FE96E010EEA2222C45F
:100DB000EFFF10D0000EE66EE66AE66EE66A020EFF
:100DC000E66EE66AF2EC12F0106E060EE15E10506E
:100DD00001D000D01200D9CFE6FFE1CFD9FF040E39
:100DE000E1260401220510E120511F0B00090CE14E
:100DF0000101C08F030E0401215D04E10101010E18
:100E0000CC6F02D00101CC6B0401225167E120516B
:100E10001F0B020863E124510F0B00095FE0010181
:100E2000C08F040124BF10D024510F0BE96EEA6A71
:100E3000D890E936EA36B40EE926010EEA22EECF62
:100E4000DEFFEDCFDDFF0FD024510F0BE96EEA6A14
:100E5000D890E936EA36B80EE926010EEA22EECF3E
:100E6000DEFFEDCFDDFF030E215D07E1DECFE9FF01
:100E7000DDCFEAFF840EEF6E31D024510F0B116AE3
:100E8000700F106E0F0E1122020E10C0DBFF030E4A
:100E900011C0DBFF020EDBCFE9FF030EDBCFEAFF61
:100EA000EE90ED5224AF0DD0DECFE9FFDDCFEAFFAB
:100EB000EF6ADF74DECFE9FFDDCFEAFF400EEF6EB1
:100EC0000DD0DECFE9FFDDCFEAFF880EEF6EDF74D5
:100ED000DECFE9FFDDCFEAFFC80EEF6E040EE15C66
:100EE00002E2E16AE552E16EE552E7CFD9FF120076
:100EF000800E0401205D55E10101C00EC06F0401A8
:100F00002351030A2EE0010A0EE0030A03E0010167
:100F1000C06B47D00101160EBE6F310EBF6F120EAF
:100F2000C16FC26B3ED02251F66EF76AD890F6368A
:100F3000F736AC0EF626310EF7220900F5CFBEF1DA
:100F40000A00F5CFBFF1020E0101F76ABE25F66E69
:100F5000BF51F7220900F5CFC1F10A00F5CFC2F168
:100F600020D0030E225D1AE22251F66EF76AD89065
:100F7000F636F736AE0EF626310EF7220900F5CF1B
:100F8000BEF10A00F5CFBFF1BEC1F6FFBFC1F7FF4A
:100F90000800F5500101C16FC26B02D00101C06BA6
:100FA00000D01200D9CFE6FFE1CFD9FF020EE12633
:100FB0000401286B296B20511F0B020A12E0030A5F
:100FC0000DE0010A01E03BD00101C08F040128813E
:100FD0000101CC0502E10401288331D00101C08F59
:100FE0002ED00101C08F040124BF10D024510F0B5B
:100FF000E96EEA6AD890E936EA36B40EE926010EBF
:10100000EA22EECFDEFFEDCFDDFF0FD024510F0B34
:10101000E96EEA6AD890E936EA36B80EE926010E9A
:10102000EA22EECFDEFFEDCFDDFFDECFE9FFDDCF41
:10103000EAFFEF50040B02E0010E286F00D001011F
:10104000C0AF07D0280EBE6F040EBF6FC081020E66
:10105000C16F020EE15C02E2E16AE552E16EE55227
:10106000E7CFD9FF12006D980101C0BF4AD0C5AFCC
:1010700028D0020EBD6FB8C1E9FFB9C1EAFFEE5238
:10108000EF6AB8C1E9FFB9C1EAFFC80EEF6EB2C19D
:10109000E9FFB3C1EAFFEE52080EEF6EB2C1E9FFFD
:1010A000B3C1EAFF020EE926000EEA22280EEE6E18
:1010B000040EED6EB2C1E9FFB3C1EAFFC80EEF6ED8
:1010C0001FD0B2C1E9FFB3C1EAFFEE52080EEF6EC6
:1010D000B2C1E9FFB3C1EAFF020EE926000EEA221F
:1010E000200EEE6E040EED6EB2C1E9FFB3C1EAFF51
:1010F0008C0EEF6EB8C1E9FFB9C1EAFF840EEF6E46
:1011000086D0C5BF84D0040120AF59D00101C151A0
:101110000401265D0101C2510401275904E226C4DD
:10112000C1F127C4C2F174D80101010EBD6FB2C173
:10113000E9FFB3C1EAFFEE52080EEF6EB2C1E9FF5C
:10114000B3C1EAFF020EE926000EEA22200EEE6E7F
:10115000040EED6EB2C1E9FFB3C1EAFF800EEF6E7F
:10116000CE6BB0C1E9FFB1C1EAFFEE52080EEF6EDF
:10117000B0C1E9FFB1C1EAFF020EE926000EEA2282
:10118000200EEE6E040EED6EB0C1E9FFB1C1EAFFB4
:10119000840EEF6E010ECE6FB8C1E9FFB9C1EAFF50
:1011A000020EE926000EEA22280EEE6E040EED6E07
:1011B000B8C1E9FFB9C1EAFFC80EEF6E28D001013E
:1011C000020EBD6FB8C1E9FFB9C1EAFFEE52EF6A86
:1011D000B8C1E9FFB9C1EAFFC80EEF6EB2C1E9FFBD
:1011E000B3C1EAFFEE52080EEF6EB2C1E9FFB3C120
:1011F000EAFF020EE926000EEA22280EEE6E040E29
:10120000ED6EB2C1E9FFB3C1EAFFC80EEF6E120086
:10121000D9CFE6FFE1CFD9FF020EE1260101080E8A
:10122000C15D000EC2590EE2C1C1DEFFC2C1DDFFC9
:10123000BC5103E1010EBC6F04D0BC0502E1020EFB
:10124000BC6F03D0080EDE6EDD6AB8C1E9FFB9C11C
:10125000EAFFEF92B8C1E9FFB9C1EAFFEF90B8C168
:10126000E9FFB9C1EAFF010EDB50EF12B8C1E9FF97
:10127000B9C1EAFFEE52DFCFEFFF000EDB50C15FD6
:10128000010EDB50C25B280ECA6F040ECB6FC0B1DB
:1012900021D0D9CFE9FFDACFEAFFEE50ED1019E007
:1012A000BEC1F6FFBFC1F7FFBE2B000EBF23080073
:1012B000F550E66ECAC1E9FFCBC1EAFFCA2B000EAA
:1012C000CB23E552E750EF6EDF06010E01E2DB06AD
:1012D000E0D71FD0D9CFE9FFDACFEAFFEE50ED100B
:1012E00018E0BEC1E9FFBFC1EAFFBE2B000EBF235D
:1012F000EF50E66ECAC1E9FFCBC1EAFFCA2B000E70
:10130000CB23E552E750EF6EDF06010E01E2DB066C
:10131000E1D7020EE15C02E2E16AE552E16EE552DC
:10132000E7CFD9FF1200D9CFE6FFE1CFD9FF020EF8
:10133000E126B0C1E9FFB1C1EAFFEE52EFCFDFFF16
:10134000DFCF10F010500101C65D000EC75903E257
:10135000C6C1DFFF09D0DF50106E116A1050C65DA4
:10136000C66F1150C759C76F010EDB6ADF50F36EAD
:10137000010EDBCFF4FFF350F45C16E2010EDB50FC
:10138000EA6A280FE96E040EEA22EF50E66EC3C146
:10139000E9FFC4C1EAFFC32B000EC423E552E750A6
:1013A000EF6E010EDB2AE2D7000ED880C655000E84
:1013B000C75528E2B2C1E9FFB3C1EAFFEE52080EF9
:1013C000EF6EB2C1E9FFB3C1EAFF020EE926000EDB
:1013D000EA22280EEE6E040EED6EB0C1E9FFB1C137
:1013E000EAFFEF50400B07E1B2C1E9FFB3C1EAFFEA
:1013F000C80EEF6E06D0B2C1E9FFB3C1EAFF880E96
:10140000EF6E25D0B2C1E9FFB3C1EAFFEE52080E7C
:10141000EF6EB2C1E9FFB3C1EAFF020EE926000E8A
:10142000EA22200EEE6E040EED6EB2C1E9FFB3C1EA
:10143000EAFF840EEF6EC851C91107E005D0C9C19B
:10144000FAFF0101C851F96EFADF0101C59F020ED2
:10145000E15C02E2E16AE552E16EE552E7CFD9FFD5
:1014600012000101C08F000EE66EE66AE66A710E98
:10147000E66E0F0EE66E1FEC19F0106E050EE15EC3
:101480001050010EE66EE66AE66AAF0EE66E010ED9
:10149000E66E1FEC19F0106E050EE15E105022C4CE
:1014A000AEF10101AE5103E1100EAD6F12D0200E6E
:1014B000AD6F010EE66EE66AAE0EE66E010EE66EEA
:1014C000010EE66EE66AF2EC12F0106E060EE15EB8
:1014D00010501200D9CFE6FFE1CFD9FF020EE1266E
:1014E000000EDE6E040EDD6EFD0EDB50E824126E83
:1014F000FE0EDB50040DF3501224040DF350106E59
:10150000116A020E0F0B05E0D89011321032E80676
:10151000FBE1D89010361136D89010361136D9CF5D
:10152000E9FFDACFEAFF1050EE261150ED22DECFB0
:10153000E9FFDDCFEAFFEF9EFD0EDB500FE1FE0E6F
:10154000EA6ADB34FE0BEA36E96EB40EE926010ED8
:10155000EA22DECFEEFFDDCFEDFF0ED0FE0EEA6A0F
:10156000DB34FE0BEA36E96EB80EE926010EEA22FC
:10157000DECFEEFFDDCFEDFFDECFE9FFDDCFEAFF0F
:10158000EF9CDECFE9FFDDCFEAFF040EE926000E77
:10159000EA22EF8C020EE15C02E2E16AE552E16EC2
:1015A000E552E7CFD9FF1200D9CFE6FFE1CFD9FF4F
:1015B000020EE126FE0EDB50116A700F106E0F0E48
:1015C000112210C0DEFF11C0DDFFDECFE9FFDDCF4D
:1015D000EAFFFD0EDBCFEFFFDBA407D0E66AFE0ECD
:1015E000DBCFE6FF77DFE552E552FD0EDBA208D048
:1015F000010EE66EFE0EDBCFE6FF6CDFE552E55234
:10160000020EE15C02E2E16AE552E16EE552E7CFEB
:10161000D9FF1200D9CFE6FFE1CFD9FF020EE126B4
:10162000FE0EDB5020E1B2C1E9FFB3C1EAFFEE528A
:10163000080EEF6EB2C1E9FFB3C1EAFF020EE92660
:10164000000EEA22200EEE6E040EED6EB2C1E9FF2E
:10165000B3C1EAFF8C0EEF6EB8C1E9FFB9C1EAFF72
:10166000840EEF6E3DD0FD0EDB50E824126EFE0EB0
:10167000DB50040DF3501224040DF3CF10F0F4CF1F
:1016800011F0000E1026040E112210C0DEFF11C052
:10169000DDFF840E106EDECFE9FFDDCFEAFF1050D4
:1016A000EF12FD0EDB50E824126EFE0EDB50040D2F
:1016B000F3501224010F040DF3CF10F0F4CF11F00A
:1016C000000E1026040E112210C0DEFF11C0DDFF37
:1016D000840E106EDECFE9FFDDCFEAFF1050EF126F
:1016E000020EE15C02E2E16AE552E16EE552E7CF0B
:1016F000D9FF1200D9CFE6FFE1CFD9FF020EE126D4
:10170000FD0EDB500FE0FE0EEA6ADB34FE0BEA361C
:10171000E96EB80EE926010EEA22EECFDEFFEDCF2C
:10172000DDFF0ED0FE0EEA6ADB34FE0BEA36E96E10
:10173000B40EE926010EEA22EECFDEFFEDCFDDFF8B
:10174000DECFE9FFDDCFEAFF020EE926000EEA2236
:10175000FB0EDBCFEEFFFC0EDBCFEDFFDECFE9FFB4
:10176000DDCFEAFFEE52FA0EDBCFEFFF400E106E38
:10177000DECFE9FFDDCFEAFF1050EF16880E106EC6
:10178000DECFE9FFDDCFEAFF1050EF12FD0EDB5098
:101790000CE0FE0EEA6ADB34FE0BEA36E96EB80EA8
:1017A000E926010EEA22EF740BD0FE0EEA6ADB3462
:1017B000FE0BEA36E96EB40EE926010EEA22EF745A
:1017C000DECF10F0DDCF11F010C0F3FF11C0F4FF39
:1017D000020EE15C03E200D0E16AE552E16EE552FF
:1017E000E7CFD9FF1200D9CFE6FFE1CFD9FF6DA82F
:1017F0004ED0FE0EEA6ADB34FE0BEA36E96EB80E16
:10180000E926010EEA22EE50EFCFEAFFE96E400E24
:10181000EE16EE6AEE6AEE6AFE0EEA6ADB34FE0B44
:10182000EA36E96EB80EE926010EEA22EE50EFCF55
:10183000EAFFE96EEE7CFE0EEA6ADB34FE0BEA3666
:10184000E96EB80EE926010EEA22EF74400E106E22
:10185000FE0EEA6ADB34FE0BEA36E96EB80EE926C4
:10186000010EEA22EE50EFCFEAFFE96E1050EF16BC
:10187000FE0EEA6ADB34FE0BEA36E96EB80EE926A4
:10188000010EEA22EE50EFCFEAFFE96EEF7CE5525F
:10189000E7CFD9FF120005D06D6A696A0101AD6B0F
:1018A00000D012000101AD5113E16D6A696A160E94
:1018B0006F6E9F0E6B6E7B0E696ED08EA28AA08AB1
:1018C000F28E6DB602D06D86FCD70101010EAD6FB0
:0218D000120004
:0E18D200DACFE4FFE2CFDAFFE9CFE4FFEACF9E
:1018E000E4FFF6CFE4FFF7CFE4FFF5CFE4FFF3CF5B
:1018F000E4FFF4CFE4FFFACFE4FF00EE00F0100EB7
:10190000E80403E3EECFE4FFFBD700EE10F0070E90
:10191000E80403E3EECFE4FFFBD7E65270EC04F0FB
:10192000E55200EE16F0070EE80403E3E5CFEDFF05
:10193000FBD700EE0FF0100EE80403E3E5CFEDFF58
:10194000FBD7E5CFFAFFE5CFF4FFE5CFF3FFE5CF17
:10195000F5FFE5CFF7FFE5CFF6FFE5CFEAFFE5CFEF
:10196000E9FFE5CFDAFF1100D8CFE4FFE0CFE4FFD5
:10197000E46EDACFE4FFE2CFDAFFE652E552E5CFDC
:10198000DAFFE550E5CFE0FFE5CFD8FF10000BD838
:1019900052EC0CF0BFDAB5D92DD8C8D90ED9B7ECB6
:1019A00011F0F8D712000F0EC1120001EB6BEC6BB7
:1019B000ED6BEE6B02D822EF04F0D9CFE6FFE1CF5A
:1019C000D9FFE652948E948C200EAC6EB00EAB6EA6
:1019D000260EAF6EB06AB86AAE50DF6EFC0E8B1684
:1019E000941694840001010EEA6FE552E552E7CFA8
:1019F000D9FF1200D9CFE6FFE1CFD9FF020EE126D1
:101A0000200E0101E76EAD19E8AE02D0E73402D036
:101A1000E750AD5D03E36D50020B01E0C4D000015F
:101A2000EB51EC1102E1000E08D0EBC0E9FFECC075
:101A3000EAFFEF50800B01E0010E000901E0B3D096
:101A4000050EE66E4EEC16F0E552000916E1400E6A
:101A5000E66E000EE66E050EE66EE66A010EE66EB6
:101A60007AEC0BF0106E050EE15E1050F3CFEBF048
:101A7000F4CFECF08B828B9096D0010E00C5DBFF8B
:101A8000DE520E0EDD6E000933E1010EDB500D0853
:101A90002FE0010EDB500A082BE0010EDB500B0893
:101AA00027E0010EDB500C0823E0010EDB50080894
:101AB0001FE0010EDB5009081BE0010EDB5002089D
:101AC00017E0010EDB50030813E0010EDB0410E009
:101AD000010EDB5004080CE0010EDB50050808E0A5
:101AE000010EDB50060804E0010EDB5007083CE164
:101AF000000EE66E050EE66E6CEC13F0E552E55254
:101B0000DF6EDF50030A22E0070A13E0050A04E053
:101B1000010A01E01BD027D0000EE66EE66AE66AF5
:101B2000010EDBCFE6FF8ED9E552E552E552E552D4
:101B30001AD0000EE66EE66AE66A010EDBCFE6FF1B
:101B400081D9E552E552E552E5520DD0000EE66E20
:101B5000E66AE66A010EDBCFE6FF74D9E552E5528C
:101B6000E552E55200D00CD0000EE66EE66AE66A59
:101B7000010EDBCFE6FF66D9E552E552E552E552AC
:101B8000400EE66E000EE66E050EE66EE66A010E8B
:101B9000E66E7AEC0BF0106E050EE15E1050F3CF9E
:101BA000EBF0F4CFECF0020EE15C02E2E16AE55208
:101BB000E16EE552E7CFD9FF1200D9CFE6FFE1CFC2
:101BC000D9FF040EE126DE6ADD6A200E0101E76E10
:101BD000AD19E8AE02D0E73402D0E750AD5D03E3C3
:101BE0006D50020B01E083D0D7EC14F0F3CF10F06E
:101BF000F4CF11F01050111001E179D00001ED5136
:101C0000EE1102E1000E08D0EDC0E9FFEEC0EAFFE0
:101C1000EF50800B01E0010E000969E1D7EC14F0F0
:101C2000F3CFDEFFF4CFDDFF020EDB6A030EDB6ACB
:101C3000020EDBCF10F0030EDBCF11F0DECFE9FF99
:101C4000DDCFEAFF010EE926000EEA22EF50020F77
:101C5000000111AE02D0D89003D0105C000E1158D4
:101C600021E2020EDBCF10F0030EDBCF11F0DE50CD
:101C70001024E96EDD501120EA6EEF50E66E020E80
:101C8000DBCFE9FF030EDBCFEAFF400EE926050EAE
:101C9000EA22E552E750EF6E020EDB2A030E01E363
:101CA000DB2AC6D7DECFE9FFDDCFEAFF010EE9264A
:101CB000000EEA22EF50020FEA6A400FE96E050EAD
:101CC000EA22EF6A400EE66E400EE66E050EE66E04
:101CD000010EE66EE66E7AEC0BF0106E050EE15E1C
:101CE0001050F3CFEDF0F4CFEEF0E7EC14F0040E6B
:101CF000E15C02E2E16AE552E16EE552E7CFD9FF2D
:101D0000120082B410D00001EF510CE1010EEF6F10
:101D1000500EE66EE66A310EE66EEADAE552E552FC
:101D2000E5528B9002D00001EF6B1200D9CFE6FF95
:101D3000E1CFD9FF020EE12601018351841110E0A9
:101D4000000ED8808155000E82550AE2812B000ECC
:101D50008223880ED8808155130E825501E269D8FE
:101D6000050EE66E4EEC16F0E552000958E0010152
:101D70008351841154E13DEC13F0F3CF83F1F4CFA0
:101D800084F183C1E9FF84C1EAFF010EEFCFDBFFDD
:101D900001018351841143E0010E816F826BF36E68
:101DA000DBCFF4FFF350F45C06E3010EDB500708D1
:101DB00002E3B5D834D00A0EF36E010EDBCFF4FF88
:101DC000F350F45C0AE3010EDB50150806E375D905
:101DD000010E0101816F826B22D0280EF36E010E7D
:101DE000DBCFF4FFF350F45C06E3010EDB50320866
:101DF00002E31EDA14D00501030E806F010E816F1D
:101E000083C1E9FF84C1EAFFEFCF82F5800EE66E61
:101E1000050EE66E06EC15F0E552E5520AD8020E04
:101E2000E15C02E2E16AE552E16EE552E7CFD9FFFB
:101E300012000101836B846B4DEC13F00101816B87
:101E4000826B1200D9CFE6FFE1CFD9FF020EE12667
:101E5000DF6A010EDB6AFE0EDB5001E151D0FD0EA0
:101E6000DB5008E00501010E806F816FFE0EDBCFB5
:101E700082F508D00501020E806F010E816FFE0E03
:101E8000DBCF82F5D950FB0FE96EFF0EDA20EA6E48
:101E9000EE50ED102DE0DF6ADF50E76EFB0EDBCF7A
:101EA000E9FFFC0EDBCFEAFFE750E926000EEA224D
:101EB000EF501EE0400EDF5C1BE2812BDF50E76E2F
:101EC000FB0EDBCFE9FFFC0EDBCFEAFFE750E92694
:101ED000000EEA22EF50E66E030EDF24EA6A800F5E
:101EE000E96E050EEA22E552E750EF6EDF2AD4D7FD
:101EF000800EE66E050EE66E06EC15F0E552E55234
:101F0000020EE15C02E2E16AE552E16EE552E7CFE2
:101F1000D9FF12000001EA5101E0F2DA120083C198
:101F2000E9FF84C1EAFFEF50050A01E177D0020A18
:101F30005EE0010A5BE0020A4BE00C0A34E00A0AA8
:101F400024E0030A15E00501030E806F010E816F86
:101F500083C1E9FF84C1EAFFEFCF82F5800EE66E10
:101F6000050EE66E06EC15F0E552E55262DFA4D0F0
:101F7000000EE66EE66A010EE66EE66E63DFE5527F
:101F8000E552E552E55255DF97D0000EE66EE66A5F
:101F9000010EE66E020EE66E55DFE552E552E552A1
:101FA000E55247DF89D00501030E806F010E816F76
:101FB00083C1E9FF84C1EAFFEFCF82F5800EE66EB0
:101FC000050EE66E06EC15F0E552E55232DF74D0F0
:101FD000000EE66EE66A010EE66E040EE66E32DF75
:101FE000E552E552E552E55224DF66D065D00501A1
:101FF000070E806F820EE66E050EE66E020EE66E2E
:10200000FEEC16F0E552E552E552800EE66E050E46
:10201000E66E06EC15F0E552E5524ED00001EA51AD
:1020200003E0EA6B8B808B82020E0101EA6A832552
:10203000E96E8451EA22EF50020A2EE0030A1DE005
:102040000501030E806F020E816F83C1E9FF84C119
:10205000EAFFEFCF82F50101EA6A8325E96E845138
:10206000EA22EFCF83F5800EE66E050EE66E06ECF3
:1020700015F0E552E552DDDE1ED08B70000EE66EE7
:10208000E66A010EE66E050EE66EDCDEE552E5520E
:10209000E552E552CEDE0FD08B72000EE66EE66A98
:1020A000010EE66E050EE66ECDDEE552E552E55216
:1020B000E552BFDE00D000D01200D9CFE6FFE1CF5D
:1020C000D9FFE652DF6A83C1E9FF84C1EAFFEF501E
:1020D000130A60E0070A15E00501030E806F010E88
:1020E000816F83C1E9FF84C1EAFFEFCF82F5800EE3
:1020F000E66E050EE66E06EC15F0E552E55299DE49
:1021000092D0DF6A010E0101EA6A8325E96E8451EB
:10211000EA22EF50DF5C1AE2020E116A8325106E8C
:1021200084511122DF500F011024E96E000E11209E
:10213000EA6EEF50E66EDF50EA6A800FE96E050E38
:10214000EA22E552E750EF6EDF2ADCD7010EEA6A99
:102150008325E96E8451EA22EF50EA6A800FE96E26
:10216000050EEA22EF6A800EE66E050EE66E89EC39
:1021700016F0E552E552F3CF10F0F4CF11F010C095
:10218000E6FF11C0E6FF310EE66EB2D8E552E55229
:10219000E55249D0DF6A010E0101EA6A8325E96E42
:1021A0008451EA22EF50DF5C1AE2020E116A8325A5
:1021B000106E84511122DF500F011024E96E000EC1
:1021C0001120EA6EEF50E66EDF50EA6A800FE96E8A
:1021D000050EEA22E552E750EF6EDF2ADCD7010E4A
:1021E000EA6A8325E96E8451EA22EF50EA6A800F99
:1021F000E96E050EEA22EF6A800EE66E050EE66EC7
:1022000089EC16F0E552E552F3CF10F0F4CF11F05F
:1022100010C0E6FF11C0E6FF320EE66E69D8E55247
:10222000E552E55200D0E552E552E7CFD9FF120062
:10223000D9CFE6FFE1CFD9FF020EE126DE6ADD6AE3
:1022400083C1E9FF84C1EAFFEF50280A15E00501C8
:10225000030E806F010E816F83C1E9FF84C1EAFF25
:10226000EFCF82F5800EE66E050EE66E06EC15F0F9
:10227000E552E552DEDD32D0020E0101EA6A832525
:10228000E96E8451EA22EF50DE6EDD6A910EE66E51
:10229000010EE66EDECF12F0DDCF13F0146A156A80
:1022A00013AE02D01468156812C0E6FF13C0E6FF33
:1022B00014C0E6FF15C0E6FF7FEC17F0166E060EA1
:1022C000E15E1650F3CF10F0F4CF11F010C0E6FF2E
:1022D00011C0E6FF36D8E552E55200D0020EE15CAF
:1022E00002E2E16AE552E16EE552E7CFD9FF120062
:1022F000D9CFE6FFE1CFD9FFE652FC0EDBCF10F0DD
:10230000FD0EDBCF11F00A0E0D6E0E6A10C008F044
:1023100011C009F0DAEC18F008C010F009C011F093
:10232000320E1024DF6EFE0EDBCF9BF1DFCF9CF16F
:1023300001019D6B9BC186F1E552E552E7CFD9FFC4
:102340001200D9CFE6FFE1CFD9FF0101340E9B6F18
:10235000FD0EDBCFE9FFFE0EDBCFEAFFEFCF9CF1F6
:102360009D6B9BC186F1E552E7CFD9FF1200D9CF13
:10237000E6FFE1CFD9FF020EE126D9CFE9FFDACFA0
:10238000EAFF540EEE6EEE6AACA233D09EAA05D0E0
:1023900000EC19F00101876F36D80101010EA71971
:1023A00001E1A8511AE1D9CFE6FFDACFE6FFE66AEC
:1023B00083C1E9FF84C1EAFFEF50E66E43DDE552D9
:1023C000E552E552E55235DD0101A66B876B9B6B4B
:1023D000866BA76BA86BA56B0BD0A65109E0010E0D
:1023E000D880A755000EA85503E2A707000EA85BEA
:1023F0005BD8020EE15C02E2E16AE552E16EE55271
:10240000E7CFD9FF1200010180054DE1410E875D44
:1024100004E1A66BA76BA86B06D0420E875D03E1B3
:10242000A66BA76BA86BA6511EE1A551EA6A9B0F8C
:10243000E96E010EEA22EF5016E1876B866BA76BFF
:10244000A86BA56B000EE66EE66A010EE66E83C110
:10245000E9FF84C1EAFFEF50E66EF4DCE552E55295
:10246000E552E552E6DC340E0101865D1CE1A55122
:10247000EA6A9B0FE96E010EEA22EF5014E10501B2
:10248000280E806F010E816F87C182F5800EE66E87
:10249000050EE66E06EC15F0E552E552CADC0101C8
:1024A000A66BA76BA86B12000101A551EA6A9B0FEE
:1024B000E96E010EEA22EF5022E0A65120E18B7076
:1024C000A551EA6A9B0FE96E010EEA22EF50E66E13
:1024D00050EC19F0E5520101A52B800506E1010E33
:1024E000A66F880EA76F130EA86FA551EA6A9B0FFF
:1024F000E96E010EEA22EF5002E1A56B9B6B120020
:102500000101AB51AC1104E1100EAB6F270EAC6FA3
:10251000AB07000EAC5B6DA206D0AB51AC1102E173
:102520008B728B902ED00101AD5103E18B908B9279
:1025300028D0AD0503E18B808B8223D0020EAD5DE8
:1025400003E18B808B921DD0040EAD5D03E18B9077
:102550008B8217D0100EAD5D07E10101AB51AC11BC
:1025600002E18B708B920DD0200EAD5D0AE101016E
:10257000AB51AC1106E18B708BA002D08B9201D0D5
:102580008B821200120012001200120012001200C0
:102590001E0EE66E010EE66ED4EC0AF0E552E55230
:1025A000400EE66E000EE66E050EE66EE66A010E61
:1025B000E66E7AEC0BF0106E050EE15E1050F3CF74
:1025C000EBF0F4CFECF012006D840001080EF06F18
:1025D000070EF16FF007000EF15BF051F111FAE117
:1025E0006D941200D9CFE6FFE1CFD9FFFD0EDBCF0E
:1025F00008F0FE0EDBCF09F0720E081801E1095059
:1026000033E0E868081802E1E86809182BE0740E66
:10261000081801E1095024E0750E081801E109507D
:102620001DE0730E081801E1095016E0030E0818AA
:1026300001E109500FE0020E081801E1095008E01D
:10264000010E081801E1095001E010D0A1DF0FD000
:102650009EDF0DD09BDF0BD097DF09D093DF07D033
:1026600092DF05D092DF03D0000001D000D0010E30
:0A26700000D0E552E7CFD9FF1200B9
:06267A000001F451F21909
:1026800002E1F551F31903E1F36AF46A05D0F2C0EF
:10269000F3FFF3C0F4FF00D012000001F451F2196F
:1026A00002E1F551F31903E1DCD8020E14D0020E59
:1026B000116AF225106EF3511122010EEA6AF22519
:1026C000E96EF351EA22EF501024F26F000E112050
:1026D000F36F000E00D01200D9CFE6FFE1CFD9FF93
:1026E000E652DF6AFD0EDBCFE9FFFE0EDBCFEAFF2D
:1026F000EF5002E1030EB0D0F4C012F0F5C013F0B9
:10270000000E125E010E135A010EE76EFD0EDBCFB6
:10271000E9FFFE0EDBCFEAFFE750E926000EEA22D2
:10272000EF50020F00011224106E000E1320116EE4
:10273000113404E210508008000E115426E29DD896
:10274000F4C012F0F5C013F0000E125E010E135A21
:10275000010EE76EFD0EDBCFE9FFFE0EDBCFEAFFD9
:10276000E750E926000EEA22EF50020F0001122482
:10277000106E000E1320116E113404E21050800808
:10278000000E115402E2010E67D0010EE76EFD0E3D
:10279000DBCFE9FFFE0EDBCFEAFFE750E926000EB4
:1027A000EA22EF50400802E2040E56D0FD0EDBCFC5
:1027B000E9FFFE0EDBCFEAFFEF50F4C0E9FFF5C002
:1027C000EAFFEF6E0001F42B000EF523010EE76E19
:1027D000FD0EDBCFE9FFFE0EDBCFEAFFE750E92677
:1027E000000EEA22EF50F4C0E9FFF5C0EAFFEF6EF9
:1027F000F42B000EF523DF6A010EE76EFD0EDBCF32
:10280000E9FFFE0EDBCFEAFFE750E926000EEA22E1
:10281000EF50DF5C1FE2020EE76EFD0EDBCF10F023
:10282000FE0EDBCF11F0E7501026000E1122DF5014
:102830000F011024E96E000E1120EA6EEF50F4C073
:10284000E9FFF5C0EAFFEF6E0001F42B000EF5235F
:10285000DF2AD2D7000E00D0E552E552E7CFD9FFEC
:1028600012000001000EF26F010EF36F000EF46F04
:10287000010EF56F020E00D01200D9CFE6FFE1CFB6
:10288000D9FF050EE126DF6A010EF2C0DBFF020E62
:10289000F3C0DBFFF2C010F0F3C011F0000E105EC9
:1028A000010E115A030E10C0DBFF0001F251F45D5E
:1028B000106EF551F355116E040E10C0DBFFF4518C
:1028C000F21902E1F551F31903E1CBDF020E63D0F7
:1028D000000EF21902E1010EF31902E1000E5BD0C5
:1028E000030EDB5002E1000E56D0040EDB50106EDA
:1028F000116A1050F25DF26F1150F359F36F040E2C
:10290000DB50106E116A1050F45DF46F1150F559E0
:10291000F56FDF6A040EDB50DF5C3BE2010EDBCFBC
:10292000E9FF020EDBCFEAFFEF50E66E030EDB504D
:10293000106E116A010EDBCF08F0020EDBCF09F03A
:102940001050085CE96E11500958EA6EE552E750E4
:10295000EF6E010EDB2A020E01E3DB2ADF500508D1
:1029600016E28B808B92010EE66E39EC19F0E5527F
:102970008B828B90010EE66E39EC19F0E5528B825A
:102980008B82010EE66E39EC19F0E552EAD7DF2AA8
:10299000C1D7000E00D0106E050EE15C02E2E16AC4
:1029A000E552E16E1050E552E7CFD9FF1200000169
:1029B000F851F61902E1F951F71903E1F36AF46AE3
:1029C00005D0F6C0F3FFF7C0F4FF00D012000001FD
:1029D000F851F61902E1F951F71903E1D5D8020EC1
:1029E00014D0020E116AF625106EF7511122010E55
:1029F000EA6AF625E96EF751EA22EF501024F66FE5
:102A0000000E1120F76F000E00D01200D9CFE6FFA4
:102A1000E1CFD9FFE652DF6AF8C012F0F9C013F037
:102A2000600E125E000E135A010EE76EFD0EDBCF34
:102A3000E9FFFE0EDBCFEAFFE750E926000EEA22AF
:102A4000EF50020F00011224106E000E1320116EC1
:102A5000113407E202D0030E92D010508008000E0D
:102A6000115426E29DD8F8C012F0F9C013F0600EA0
:102A7000125E000E135A010EE76EFD0EDBCFE9FF6A
:102A8000FE0EDBCFEAFFE750E926000EEA22EF5008
:102A9000020F00011224106E000E1320116E11346B
:102AA00004E210508008000E115402E2010E67D0BB
:102AB000010EE76EFD0EDBCFE9FFFE0EDBCFEAFF76
:102AC000E750E926000EEA22EF50400802E2040E29
:102AD00056D0FD0EDBCFE9FFFE0EDBCFEAFFEF5055
:102AE000F8C0E9FFF9C0EAFFEF6E0001F82B000E15
:102AF000F923010EE76EFD0EDBCFE9FFFE0EDBCF03
:102B0000EAFFE750E926000EEA22EF50F8C0E9FF9D
:102B1000F9C0EAFFEF6EF82B000EF923DF6A010E11
:102B2000E76EFD0EDBCFE9FFFE0EDBCFEAFFE750DD
:102B3000E926000EEA22EF50DF5C1FE2020EE76E8C
:102B4000FD0EDBCF10F0FE0EDBCF11F0E7501026AC
:102B5000000E1122DF500F011024E96E000E11202B
:102B6000EA6EEF50F8C0E9FFF9C0EAFFEF6E00012E
:102B7000F82B000EF923DF2AD2D7000E00D0E55241
:102B8000E552E7CFD9FF12000001600EF66F000E8C
:102B9000F76F600EF86F000EF96F020E00D0120092
:102BA000D9CFE6FFE1CFD9FF050EE126600EDE6E3C
:102BB000000EDD6E020EDB6AF6C010F0F7C011F0F9
:102BC000600E105E000E115A030E10C0DBFF0001F4
:102BD000F651F85D106EF951F755116E040E10C0E4
:102BE000DBFFF851F61902E1F951F71903E1CCDFE7
:102BF000020E48D0600EF61902E1000EF71902E14C
:102C0000000E40D0030EDB5002E1000E3BD0040E5C
:102C1000DB50106E116A1050F65DF66F1150F759C7
:102C2000F76F040EDB50106E116A1050F85DF86FEC
:102C30001150F959F96F020EDB6A040EDB50F36E86
:102C4000020EDBCFF4FFF350F45C1AE2DECFE9FFB3
:102C5000DDCFEAFFEF50E66E030EDB50106E116A17
:102C60001050DE5CE96E1150DD58EA6EE552E75017
:102C7000EF6EDF2A010E01E3DB2A020EDB2ADDD72D
:102C8000000E00D0106E050EE15C02E2E16AE55232
:102C9000E16E1050E552E7CFD9FF1200D9CFE6FF21
:102CA000E1CFD9FFF8C012F0F9C013F0600E125E48
:102CB000000E135AFE0EDB5000011224106E000E9F
:102CC0001320116E113404E210508008000E1154CC
:102CD0001AE266DFF8C012F0F9C013F0600E125E5F
:102CE000000E135AFE0EDB5000011224106E000E6F
:102CF0001320116E113404E210508008000E11549C
:102D000002E2000E02D0010E00D0E552E7CFD9FF5B
:022D10001200AF
:0E2D1200FF0EE3CFEAFFE552FF0EE3CFE9FF2D
:102D2000E552E66AE66AD9CFE6FFDACFE6FFFC0EA7
:102D3000E124D96EFF0EE220DA6EE66AE66AE66A00
:102D4000200EEF5C06E0090EEF5C03E0EF6603D0B7
:102D50003FD0EE50F5D72D0EEF5C03E1FF0EE32AD6
:102D600003D02B0EEF5C01E1EE502F0EEF6424D068
:102D70003A0EEF6021D0D890F90EE336FA0EE33622
:102D8000FD0EDECFE3FFFE0EDDCFE3FFD890F90EA0
:102D9000E336FA0EE336D890F90EE336FA0EE33650
:102DA000FD0EE350DE26FE0EE350DD22300EEE5C1B
:102DB000DE26000EDD22D9D7FF0EE3CFE8FFE85272
:102DC00007E0F90EE31EE32AFA0ED8B4E306E31E89
:102DD000E552E552E552FF0EE3CFDAFFE552FF0E72
:102DE000E3CFD9FFE552E1CFE9FFE2CFEAFFED52B1
:102DF000ED52EECFF3FFEFCFF4FF1200D9CFE6FF95
:102E0000DACFE6FFFB0EE3CFD9FFFC0EE3CFDAFF0C
:102E1000FD0EE35205E72D0EDE6EFD0EE31EE32AE6
:102E2000E652E652FE0EE124E76EFF0EE220E46E6B
:102E3000E652F90EE3CFE6FF5CEC17F0FB0EE1245F
:102E4000E96EFF0EE220EA6E4CEC17F004E149EC6B
:102E500017F003E104D057EC17F052EC17F057ECE1
:102E600017F0DE6AFB0EE126FF0EE222FF0EE3CF33
:102E7000DAFFE552FF0EE3CFD9FFE552FD0EE12464
:102E8000E96EFF0EE220EA6EEECFF3FFEFCFF4FF24
:102E90001200EF380F0B1200EF500F0B02E1EE5251
:102EA000D8841200EF380F0B300FDE6E1200EE5098
:102EB0000F0B300FDE6E1200FD0EE3CFE9FFFE0EAA
:102EC000E3CFEAFF080EE66EEE6AEF6AD890FE0ED8
:102ED000E336ED36EF36FF0EE30606E076EC17F04C
:102EE000EE5276EC17F0F3D7E56E1200030EEF24E6
:102EF000E8B6EF6E300EEF24E8BEEF6E000CD9CFCF
:102F0000E6FFDACFE6FFF80EE3CFD9FFF90EE3CF05
:102F1000DAFFE652E652E652E652E652FB0EE124B2
:102F2000E76EFF0EE220E46EE652F30EE3CFE6FF1B
:102F3000F30EE3CFE6FFF30EE3CFE6FFF30EE3CFAE
:102F4000E6FF04EC18F0F50EE124E96EFF0EE22036
:102F5000EA6EF1EC17F019E1F4EC17F018E1F1EC7E
:102F600017F017E1F4EC17F016E1F1EC17F015E1AA
:102F7000F4EC17F014E1F1EC17F013E1F4EC17F0B6
:102F800012E1F1EC17F011E112D0FAEC17F0FFECBE
:102F900017F0FAEC17F0FFEC17F0FAEC17F0FFEC73
:102FA00017F0FAEC17F0FFEC17F0FAEC17F0FFEC63
:102FB00017F0DE6AF50EE126FF0EE222FF0EE3CFE8
:102FC000DAFFE552FF0EE3CFD9FFE552FA0EE12416
:102FD000E96EFF0EE220EA6EEECFF3FFEFCFF4FFD3
:102FE0001200EF380F0B1200EF500F0B02E1EE5200
:102FF000D8841200EF380F0B300FDE6E1200EE5047
:103000000F0B300FDE6E1200FA0EE3CFE9FFFB0E5E
:10301000E3CFEAFF200EE66EEE6AEE6AEE6AEE6A33
:10302000EF6AD890FB0EE336FC0EE336FD0EE33676
:10303000FE0EE336ED36ED36ED36ED36EF36FF0EAD
:10304000E3060FE033EC18F0EE5233EC18F0EE52DA
:1030500033EC18F0EE5233EC18F0EE5233EC18F07B
:10306000E1D7E56E1200030EEF24E8B6EF6E300EE6
:08307000EF24E8BEEF6E000C36
:083078002A0EF66E080EF76E39
:10308000000EF86E00010900F550E56F0900F550DB
:10309000E66F03E1E56701D03DD00900F550E06F30
:1030A0000900F550E16F0900F550E26F09000900D1
:1030B000F550E96E0900F550EA6E090009000900B3
:1030C000F550E36F0900F550E46F09000900F6CFF1
:1030D000E7F0F7CFE8F0F8CFE9F0E0C0F6FFE1C0A5
:1030E000F7FFE2C0F8FF0001E35302E1E45307E019
:1030F0000900F550EE6EE307F8E2E407F9D7E7C000
:10310000F6FFE8C0F7FFE9C0F8FF0001E507000E91
:06311000E65BBFD71200D0
:0A3116001201000200000008D8F4C6
:10312000040F00000102000109022000010100C09B
:10313000320904000002FFFFFF0007050102400002
:103140000107058102400001040309042E03440025
:1031500072006500780065006C002000440061008A
:1031600074006100200046007500730069006F0064
:103170006E0020004C0061006200320353005700D3
:10318000410052004D00530020004C0069006200D5
:10319000750073006200200043006F006E00740031
:1031A00072006F006C006C006500720028314831BD
:0431B0004C317A31F3
:0C31B400006A0EAEE3EF18F00D6C0E1E6A
:1031C000E86A0E22001E09AEEBEF18F0086C091E2B
:1031D000E86A0922001E67EC19F009BEFBEF18F03F
:1031E00000AE000C086C091EE86A0922046C051E7A
:1031F000E86A0522000C00BEF2EF18F00188FF0C0F
:10320000D9CFE6FFDACFE6FFE1CFD9FFE2CFDAFF91
:10321000E652F20E0001FA17ABAC03D0FA91ABB054
:10322000FA81ABB4FA85ABB2FA87AE50DF6EDF50ED
:0E323000E552E552E5CFDAFFE7CFD9FF1200F5
:02323E00FE0E82
:10324000E3CFE9FFFF0EE3CFEAFFE9CFF3FFEACFD9
:10325000F4FFFB0EE35003E1FC0EE35009E0FB0E2C
:10326000E30602E2FC0EE306FD0EE350EE6EF1D73C
:0232700012004A
:0E327200FF0EE350186EEF0E01D0F30EE76E64
:10328000E72E40EF19F00C0E176EE76AE72E46EFB7
:1032900019F0172E45EF19F0182E3EEF19F0120015
:1032A000D9CFE6FFDACFE6FFE1CFD9FFE2CFDAFFF1
:1032B000ACAC04D0AC900001FAB3AC80FD0EDB5096
:0E32C000AD6EE552E5CFDAFFE7CFD9FF120081
:0232CE00056A8F
:1032D000046A100EE76ED8900836093604360536B3
:1032E0000D50045C0E50055805E30D50045E0E5061
:0A32F000055A082AE72EF0D7120055
:0632FA0013EE00F023EECC
:1033000000F0F86A019C3CEC18F092EC19F0C7EC64
:063310000CF0FBD71200D7
:0A33160000EE00F00F0EEE6AEA620E
:04332000FDD71200C3
:02332400120095
:0A3326000100000000630000000039
:10333000000000000000000000000000000000008D
:10334000000000000000000000000000000000007D
:033350000000007A
:083353000001000160006000B0
:020000040030CA
:0100000025DA
:010001000EF0
:010002003FBE
:010003001EDE
:010005008179
:010006008178
:010008000FE8
:01000900C036
:01000A000FE6
:01000B00A054
:01000C000FE4
:01000D0040B2
:00000001FF
