:020000040000FA
:060000008CEF10F012006D
:020006001200E6
:08000800F29ED09E0E01010ED4
:10001000981901E1995101E18082E8EF0BF012009B
:0E00200001005E210000000E00009E000000A6
:02002E005E0E64
:10003000D36E3DEC07F0A4EC0BF08084520EE66E1C
:1000400083EC06F0E5528084140EB8EC0DF00E013E
:10005000010E781904E1795102E18080F8D780948B
:1000600080928090500EE66E5FEC10F0EBD746EC7D
:100070000DF0020EE126010EDE6EDD6A73EC0DF06E
:10008000D890115004E6FF0E105C000E11580AE2E1
:10009000DFCFE6FF83EC06F0E552DF2A010EEEE348
:1000A000DB2AECD7020EE15C02E2E16AE552E16E86
:1000B0004BEF0DF08082320EBE6E140EB8EC0DF0D8
:1000C0003A0EE66EC2EC06F0E5528092320E0E0158
:1000D000A0EC0DF0960EB8EC0DF0240EE66EC2EC1E
:1000E00006F0E5528082340EBE6E140EB8EC0DF0B0
:1000F000809200EC0EF0960EB8EF0DF046EC0DF08D
:100100000E01010E8D1908E18E5106E1FE0EDBCFC6
:10011000E6FF71EC05F018D0010E9C1907E19D5126
:1001200005E1FE0EDBCFE6FF65DA0ED0010E8F197A
:1001300007E1905105E1FE0EDBCFE6FFCEDA04D0F9
:10014000FE0EDBCFE6FF03D8E5524BEF0DF0D9CF23
:10015000E6FFE1CFD9FFD76AD66A0E01775101E1F8
:1001600045D1310E0E01775D1BE1FE0EDBCFE6FFC0
:10017000C2EC06F0E552F3CF10F0F4CF11F0010E0F
:10018000101801E1115006E1420EE66E83EC06F014
:10019000E55205D0410EE66E83EC06F0E55223D120
:1001A000320E0E01775D1BE1FE0EDBCFE6FFFFECAA
:1001B00006F0E552F3CF10F0F4CF11F0010E101855
:1001C00001E1115006E1420EE66E83EC06F0E552C5
:1001D00005D0410EE66E83EC06F0E55204D1330EF5
:1001E0000E01775D17E1FE0EDB50310807E1410E8D
:1001F000E66E83EC06F0E5525DDF0BD0FE0EDB50C1
:10020000320802E134DF05D0420EE66E83EC06F0E0
:10021000E552E9D0340E0E01775D64E1FE0EDB504D
:1002200031080AE1010EE66EBFEC07F0E552E66E1A
:1002300083EC06F0E55255D0FE0EDB5032080AE1A1
:10024000020EE66EBFEC07F0E552E66E83EC06F0B8
:10025000E55247D0FE0EDB5033080AE1030EE66E8E
:10026000BFEC07F0E552E66E83EC06F0E55239D0BC
:10027000FE0EDB5034080AE1040EE66EBFEC07F018
:10028000E552E66E83EC06F0E5522BD0FE0EDB5015
:1002900035080AE1050EE66EBFEC07F0E552E66EA2
:1002A00083EC06F0E5521DD0FE0EDB5036080AE165
:1002B000060EE66EBFEC07F0E552E66E83EC06F044
:1002C000E5520FD0FE0EDB50370806E10ACEE6FFFE
:1002D00083EC06F0E55205D0420EE66E83EC06F0A4
:1002E000E55281D0350E0E01775D64E1FE0EDB50E4
:1002F00031082BE10E010051011114E1010E0E0134
:10030000006F016B010EE66EE66A010EE66EE8EC28
:1003100007F0E552E552E552500EE66E83EC06F02A
:10032000E55212D00E01006B016B000EE66EE66A1C
:10033000010EE66EE8EC07F0E552E552E552460E96
:10034000E66E83EC06F0E55234D0FE0EDB50320848
:100350002BE10E010251031114E1010E0E01026F97
:10036000036B010EE66EE66A020EE66EE8EC07F03D
:10037000E552E552E552500EE66E83EC06F0E5528A
:1003800012D00E01026B036B000EE66EE66A020EDF
:10039000E66EE8EC07F0E552E552E552460EE66EF1
:1003A00083EC06F0E55205D0420EE66E83EC06F0D3
:1003B000E55219D0430E0E01775D15E1FE0EDB50BC
:1003C0004E0804E1E66A8DDBE5520DD0FE0EDB50EF
:1003D000550804E1E66A81D9E55205D0420EE66E81
:1003E00083EC06F0E5520E01776B96D0FE0EDB50E3
:1003F000530817E1320E0E01846F856B2E0EBE6E10
:10040000320E0E01866F876B300EBB6E8080010E40
:100410000E01786F796B410EE66E83EC06F0E552C3
:100420007BD0FE0EDB50410807E18082410EE66E74
:1004300083EC06F0E55270D0FE0EDB50520821E14D
:100440000E01010E981901E1995107E1030EE66EC4
:10045000E66A4BEC0CF0E552E552410EE66E83EC99
:1004600006F0E552320E0E01846F856B2E0EBE6EC5
:10047000320E0E01866F876B300EBB6E8080FF00E0
:100480004BD0FE0EDB504E0812E1320E0E01846F8F
:10049000856B2E0EBE6E320E0E01866F876B300E90
:1004A000BB6E410EE66E83EC06F0E55235D0FE0ED3
:1004B000DB50310814E0FE0EDB50320810E0FE0E77
:1004C000DB5033080CE0FE0EDB50340808E0FE0E73
:1004D000DB50430804E0FE0EDB50350809E1410E15
:1004E000E66E83EC06F0E552FE0EDBCF77FE14D00D
:1004F0000E01010E981901E1995107E1FE0EDBCFC3
:10050000E6FF83EC06F0E55205D0420EE66E83EC82
:1005100006F0E552808000D0E552E7CFD9FF120007
:1005200046EC0DF0E652C7EC0DF010BE116878EC09
:100530000DF010BE116891EC0DF00BE0C7EC0DF062
:1005400010BE116878EC0DF010BE116891EC0DF042
:1005500003E1010EF36E01D0F36AF46AE5524BEF4A
:100560000DF00A0E0E018B6F8C6B8C3504E28B51F3
:100570000D08000E8C5507E30EEC0EF00E018B2BD0
:10058000000E8C23F2D7060E39EF0DF046EC0DF07D
:10059000FE0EDB50440A18E00B0A0EE01B0A28E1AD
:1005A0000A0EFEEC0CF00A0EF7EC0DF014E08A5186
:1005B000885D16E0D6DF1CD00C0EFEEC0CF00C0EA5
:1005C000F7EC0DF00DE107D00B0EFEEC0CF00B0E6E
:1005D000F7EC0DF005E10EEC0EF08ACEE6FF06D04A
:1005E00089CEE6FF3FEC0DF089CEE6FF8CDBE552CD
:1005F0004BEF0DF0D9CFE6FFE1CFD9FF0E017751D8
:100600000AE00E01776B050EE66EE66A4BEC0CF025
:10061000E552E5525ED0FE0EDB5014E1050EE66EAB
:10062000E66A4BEC0CF0E552E552320E0E01846F97
:10063000856B2E0EBE6E320E0E01866F876B300EEE
:10064000BB6E47D0FE0EDB50510A1CE0200A1AE0B8
:10065000230A18E0200A16E0410A0FE0010A08E028
:10066000030A01E026D0440EE66E90DFE55229D061
:10067000540EE66E8BDFE55224D04F0EE66E86DF19
:10068000E5521FD0030EE66EE66A4BEC0CF0E55225
:10069000E552320E0E01846F856B2E0EBE6E320E49
:1006A0000E01866F876B300EBB6E8080FF0011D00D
:1006B00008D0040EE66EE66A4BEC0CF0E552E5520B
:1006C00000D0050EE66EE66A4BEC0CF0E552E55202
:1006D00000D0E552E7CFD9FF1200D9CFE6FFE1CF36
:1006E000D9FFFE0EDB50470809E1410EE66E0BDB39
:1006F000E5520E01470E916FF0D120D0FE0EDB5077
:10070000530809E1410EE66EFEDAE5520E01530E82
:10071000916FE3D113D0FE0EDB5052080FE1320E81
:100720000E01846F856B2E0EBE6E320E0E01866F2B
:10073000876B300EBB6E8080FF00CFD10E017751EA
:100740000FE1FE0EDB500CE0530E0E01915D08E14F
:10075000410EE66ED8DAE552FE0EDBCF77FEBDD154
:10076000FE0EDB5017E1010E0E018F6F906B410EF4
:10077000E66EC9DAE5520E01776B320E0E01846F18
:10078000856B2E0EBE6E320E0E01866F876B300E9D
:10079000BB6EA3D1470E0E01915D01E0D1D0FE0EDC
:1007A000DB50380A01E1AED00F0A01E192D0010A14
:1007B00001E17CD0030A67E0010A52E0070A37E052
:1007C000010A1CE0030A01E0B6D00B0E0E018B6F8C
:1007D0008C6B0E01460E8A6F0E01540E896F8BCE04
:1007E000E6FF8CCEE6FF22EC10F0E552E5520E015A
:1007F000886F88CEE6FF87DAE552A2D00A0E0E0196
:100800008B6F8C6B0E01460E8A6F0E01540E896F32
:100810008BCEE6FF8CCEE6FF22EC10F0E552E552DF
:100820000E01886F88CEE6FF6EDAE55289D00C0E95
:100830000E018B6F8C6B0E01460E8A6F0E01540EEB
:10084000896F8BCEE6FF8CCEE6FF22EC10F0E552EE
:10085000E5520E01886F88CEE6FF55DAE55270D07A
:10086000140E0E018B6F8C6B8BCEE6FF8CCEE6FFE9
:1008700022EC10F0E552E5520E01886F88CEE6FFBB
:1008800042DAE5525DD0150E0E018B6F8C6B8BCE6C
:10089000E6FF8CCEE6FF22EC10F0E552E5520E01A9
:1008A000886F88CEE6FF2FDAE5524AD0160E0E0189
:1008B0008B6F8C6B8BCEE6FF8CCEE6FF22EC10F0BC
:1008C000E552E5520E01886F88CEE6FF1CDAE5524C
:1008D00037D00D0E0E018B6F8C6B0E01460E8A6F9A
:1008E0000E01540E896F8BCEE6FF8CCEE6FF22EC14
:1008F00010F0E552E5520E01886F88CEE6FF03DA6C
:10090000E5521ED00E0E0E018B6F8C6B0E01460E43
:100910008A6F0E01540E896F8BCEE6FF8CCEE6FFF8
:1009200022EC10F0E552E5520E01886F88CEE6FF0A
:10093000EAD9E55205D0420EE66EE5D9E55200D07F
:10094000530E0E01915D01E0C0D00E017751380ABF
:1009500001E19FD00F0A01E185D0010A72E0030A8C
:100960005FE0010A4CE0070A33E0010A1AE0030ADB
:1009700001E0A6D00B0E0E018B6F8C6B0E01460EA4
:100980008A6F0E01540E896FFE0EDBCFE6FF8BCE11
:10099000E6FFC6DDE552E552410EE66EB4D9E552FA
:1009A00094D00A0E0E018B6F8C6B0E01460E8A6F6F
:1009B0000E01540E896FFE0EDBCFE6FF8BCEE6FFF5
:1009C000AFDDE552E552410EE66E9DD9E5527DD090
:1009D0000C0E0E018B6F8C6B0E01460E8A6F0E0192
:1009E000540E896FFE0EDBCFE6FF8BCEE6FF98DD5F
:1009F000E552E552410EE66E86D9E55266D0140EF8
:100A00000E018B6F8C6BFE0EDBCFE6FF8BCEE6FF0D
:100A100087DDE552E552410EE66E75D9E55255D0B7
:100A2000150E0E018B6F8C6BFE0EDBCFE6FF8BCEAF
:100A3000E6FF76DDE552E552410EE66E64D9E552F9
:100A400044D0150E0E018B6F8C6BFE0EDBCFE6FFD4
:100A50008BCEE6FF65DDE552E552410EE66E53D9D9
:100A6000E55233D00D0E0E018B6F8C6B0E01460ECE
:100A70008A6F0E01540E896FFE0EDBCFE6FF8BCE20
:100A8000E6FF4EDDE552E552410EE66E3CD9E552F9
:100A90001CD00E0E0E018B6F8C6B0E01460E8A6FF2
:100AA0000E01540E896FFE0EDBCFE6FF8BCEE6FF04
:100AB00037DDE552E552410EE66E25D9E55205D007
:100AC000420EE66E20D9E55200D0FE0EDB500E013C
:100AD000775D02E00E01776B00D0E552E7CFD9FFDA
:100AE0001200D9CFE6FFE1CFD9FF0E0177510DE01B
:100AF000FE0EDB500AE00E01776B020EE66EE66A30
:100B00004BEC0CF0E552E55279D0FE0EDB5019E1CA
:100B1000020EE66EE66A4BEC0CF0E552E552010E71
:100B20000E018D6F8E6BD56A320E0E01846F856B50
:100B30002E0EBE6E320E0E01866F876B300EBB6EB0
:100B40005DD0FE0EDB50510A2CE0200A2AE0230A79
:100B500028E0200A26E0460A1CE0070A12E0010A03
:100B60000EE0030A01E034D0010E0E019C6F9D6B74
:100B70000E018D6B8E6BE66A3DDDE55231D042D8B9
:100B80002FD0070EE66EE66A4BEC0CF0E552E5520C
:100B900027D0010EE66EE66A4BEC0CF0E552E5520A
:100BA0001FD0030EE66EE66A4BEC0CF0E552E55200
:100BB000320E0E01846F856B2E0EBE6E320E0E014C
:100BC000866F876B300EBB6E8080FF0017D008D019
:100BD000040EE66EE66A4BEC0CF0E552E55200D0EE
:100BE0000E01010E8D1901E18E5107E1020EE66E34
:100BF000E66A4BEC0CF0E552E55200D0E552E7CF47
:100C0000D9FF1200F29EACEC10F0320EBE6E460E12
:100C1000E66E79D8E552640EE66E5FEC10F0E552B0
:100C20002B0EBE6E420EE66E6ED8E552640EE66E78
:100C30005FEC10F0E552ACEC10F03E0EE66EA2D880
:100C4000E552520EE66E5FD8E552640EE66E5FEC3A
:100C500010F0E552ACEC10F0240EE66E93D8E5529D
:100C60004C0EE66E50D8E552640EE66E5FEC10F066
:100C7000E552ACEC10F037EC00F0530EE66E43D8C2
:100C8000E552640EE66E5FEC10F0E552ACEC10F04D
:100C90008084808280804C0EE66E35D8E552FE0E50
:100CA000E66E5FEC10F0E55289CEE6FF010EE66ECF
:100CB00037DCE552E552F3CF10F0F4CF11F0010E1E
:100CC000101801E1115009E1450EE66E1CD8E552FD
:100CD000FE0EE66E5FEC10F0E552030EE66EE66A7D
:100CE0004BEC0CF0E552E552320E0E01846F856B31
:100CF0002E0EBE6E320E0E01866F876B300EBB6EEF
:100D00008080FF00120046EC0DF080829EA8FED786
:100D1000FE0EDB50AD6E80924BEF0DF005EC0EF049
:100D2000DE6ADD6A73EC0DF0FB0EDBCF12F0FC0E19
:100D3000DBCF13F011501318E8AE02D0133404D0F7
:100D40001250105C1350115815E2FD0EDBCF10F05D
:100D5000FE0EDBCF11F0DE501024E96EDD501120C5
:100D6000EA6EEF50E66ECFDFE552DF2A010EDAE3DE
:100D7000DB2AD8D7020EE15C02E2E16AE552E16EBD
:100D80004BEF0DF046EC0DF0FE0EDBCF86FE0E01B4
:100D9000876B86BF8769DBCF10F0116A10BE1168C0
:100DA00081511118E8AE02D0113404D01050805D8A
:100DB0001150815911E3FE0EDBCF12F0136A12BEFF
:100DC000136813508319E8AE02D0833504D08251E2
:100DD000125C8351135806E2D1EC0DF08080010EB5
:100DE000F36E0AD0FE0EDB50FE0FE76EFE0EE7CF6D
:100DF000DBFFDB50BB6EF36AF46A4BEF0DF046ECA1
:100E00000DF0FE0EDBCF84FE0E01856B84BF85697D
:100E1000DBCF10F0116A10BE11687D511118E8AED9
:100E200002D0113404D010507C5D11507D5911E373
:100E3000FE0EDBCF12F0136A12BE136813507F1937
:100E4000E8AE02D07F3504D07E51125C7F5113583A
:100E500007E2320EA0EC0DF08080010EF36E0AD096
:100E6000FE0EDB50FC0FE76EFE0EE7CFDBFFDB5024
:100E7000BE6EF36AF46A4BEF0DF0A7EC0BF0BAEC20
:100E80000BF026D9D1EF0BF0D9CFE6FFE1CFD9FF98
:100E9000020EE126060EC16E200EC26EAC0EC06EB2
:100EA000C2801E0EE66E9AEC10F0E552C282C2A21B
:100EB00002D00000FCD7C350DE6EDD6AC290DF5066
:100EC00000D0106E020EE15C02E2E16AE552E16ED2
:100ED0001050E552E7CFD9FF1200D9CFE6FFE1CF9E
:100EE000D9FF020EE126040EC16E280EC26EAC0EB2
:100EF000C06EC2801E0EE66E9AEC10F0E552C28201
:100F0000C2A202D00000FCD7C350DE6EDD6AC290E0
:100F1000DF5000D0106E020EE15C02E2E16AE552A1
:100F2000E16E1050E552E7CFD9FF1200D9CFE6FFAE
:100F3000E1CFD9FF020EE126030EC16E2C0EC26E68
:100F4000AC0EC06EC2800F0EE66E9AEC10F0E55249
:100F5000C282C2A202D00000FCD7C350DE6EDD6A9E
:100F6000C290DF5000D0106E020EE15C02E2E16A36
:100F7000E552E16E1050E552E7CFD9FF120046EC82
:100F80000DF0E652DF68FE0EDB50060A15E0030A9C
:100F900011E0010A0DE0070A09E0010A05E0030A71
:100FA00013E18150010B11D00A0E07D0080E05D0B5
:100FB0000B0E03D0030E01D0090EE66EE66AFFDACF
:100FC000E552E552F35001D0DF50E5524BEF0DF002
:100FD00046EC0DF0FE0EDB50020A0DE0030A03E0C2
:100FE0008080020E10D0FC0EDB50E8B08088E8B0A4
:100FF00008D0809806D0FC0EDB50E8B0808AE8A0CC
:10100000809AFC0EDB504BEF0DF046EC0DF0250EF8
:10101000E1260E01010E941953E1955151E1010EA3
:10102000E66EADDFE55200094BE10E0192519311DE
:1010300003E07A517B1144E18082320EA0EC0DF086
:10104000010E921905E1935103E1010E7A6F7B6B5A
:10105000010E981935E1995133E1010E9A1930E1E9
:101060009B512EE164EC0DF0690EEE6E6E0EEE6E8D
:10107000700ED7EC0DF0310EFCEC0DF06D0EEE6E37
:101080006F0EEE6E740EEE6E6F0EEE6E720EFCEC68
:101090000DF0730EEE6E740EEE6E6F0EEE6E700E41
:1010A000FCEC0DF06F0EEE6E630EEE6EEE6E750ED6
:1010B000EE6E720EEE6EA5EC0DF0250E4FEC0DF0FF
:1010C000250EE15C02E2E16AE552E16E4BEF0DF0C4
:1010D000ACEC10F00C0EEAEC0DF004E1010E926F96
:1010E000936B14D08A51885D04E1926B936BD56A3F
:1010F0000DD0ACEC10F089CEE6FF3FEC0DF0010E08
:101100000E01926F936B060E39EC0DF0ACEC10F003
:101110000A0EEAEC0DF003E1010E9A6F04D08A5139
:10112000885D03E19A6B9B6B08D0E6EC0DF00E0135
:101130009A6B9B6B060E39EC0DF0ACEC10F00B0EBD
:10114000EAEC0DF003E1010E986F04D08A51885D3E
:1011500003E1986B996B08D0E6EC0DF00E01986BEB
:10116000996B060E39EC0DF0ACEC10F00D0EEAECBC
:101170000DF003E1010E946F04D08A51885D03E104
:10118000946B956B08D0E6EC0DF00E01946B956BAB
:10119000060E39EC0DF0ACEC10F00E0EEAEC0DF092
:1011A00003E1010E966F04D08A51885D03E1966BCE
:1011B000976B08D0E6EC0DF00E01966B976B060E60
:1011C00039EC0DF0ACEC10F0150E88EC0DF0E8AE3B
:1011D00002D0883503D0E750D880885511E2500EF0
:1011E000E76E8819E8AE02D0E73402D0E750885D98
:1011F00007E288CE7CFE7D6B7CAF0BD07D6909D089
:10120000ACEC10F07CCEE6FF3FEC0DF0060E39ECB6
:101210000DF0ACEC10F0160E88EC0DF0E8AE02D03C
:10122000883503D0E750D880885511E2500EE76E1C
:101230008819E8AE02D0E73402D0E750885D07E2B3
:1012400088CE7EFE7F6B7EAF0BD07F691200ACEC48
:1012500010F07ECEE6FF3FEC0DF0060E39EC0DF0FF
:10126000120046EC0DF0210EE1260E019251931171
:1012700042E0D66AD66A010E921935E1935133E104
:10128000320EA0EC0DF0010E98192DE199512BE1D1
:10129000010E9A1928E19B5126E164EC0DF0740EC1
:1012A000EE6E690EEE6E6D0EEE6E650EEE6E6F0EEC
:1012B000D7EC0DF0680EEE6E610EEE6E730EFCEC68
:1012C0000DF0740EEE6E720EEE6E690EEE6E670E1F
:1012D000EE6EEE6E650EEE6E720EA5EC0DF0EE6A21
:1012E000EE6A210EDCDB0E01010E941904E195512A
:1012F00002E17A6B7B6B210EE15C02E2E16AE5526E
:10130000E16EC9D305EC0EF00E01042B000E05238F
:10131000010EE66E34DEE552106E116A10BE1168E1
:101320000E010E51101802E10F51111818E0126A47
:10133000136A1250131013E1010E961910E1975120
:101340000EE10E510F1102E0000E01D0010E0E6FE2
:101350000F6B800B01E00F69082B000E092304CEF0
:1013600010F005CE11F0500E0D6E0E6A04CE08F08E
:1013700005CE09F0FCEC0FF004C010F005C011F030
:101380000450051001E07CD00E01010E961901E019
:1013900077D0975175E108CE0AFE09CE0BFE040EF8
:1013A0000D6E0E6A08CE08F009CE09F0FCEC0FF0C5
:1013B00008C00AFE09C00BFE0E01086B096B340E53
:1013C000841913E1855111E10A510B110EE10C5101
:1013D0000D110BE1010E0C6F0D6B350EE66E0FDD7E
:1013E000E552010EE66EE66A32D0350E841911E13F
:1013F00085510FE1010E0C190CE10D510AE10A5162
:101400000B1107E1020E0C6F0D6B360EE66EF7DC6A
:1014100022D00D3516E20C510008000E0D5511E2D8
:10142000350E841901E1855105E0360E841909E174
:10143000855107E10C6B0D6B340EE66EE0DCE55276
:1014400002D00C6B0D6B000EE66EE66A010EE66EC6
:10145000BFDDE552E552E5520E01010E981910E18B
:1014600099510EE1010E9A190BE19B5109E10A51C4
:101470000B1102E1530E01D0470EE66E44DCE5523B
:1014800004CE10F005CE11F0106A116A1050111040
:101490003DE1C282C2A202D0CE6AFCD7C450DE6E49
:1014A000DD6A050E0E01061901E1075120E0040E68
:1014B000061901E1075118E0030E061901E1075171
:1014C00010E0020E061901E1075108E0010E0619AD
:1014D00017E1075115E151DB080E0BD04EDB0A0E68
:1014E00008D04BDB0B0E05D048DB090E02D045DBE4
:1014F000030EE66EE66A11D8E552E552E552E55272
:10150000C2900E01062B000E0723E1D8020EE15C0B
:1015100002E2E16AE552E16EBED2B8DA22DB0B0EDE
:10152000081801E1095028E00A0E081801E10950E5
:101530001EE0090E081801E1095014E0080E081811
:1015400001E109500AE0030E081821E109501FE1EA
:10155000B3DA100EE9260E0E13D0AEDA240EE92609
:101560000E0E0ED0A9DA380EE9260E0E09D0A4DA36
:101570004C0EE9260E0E04D09FDA600EE9260E0E00
:10158000EA22FB0EDBCFEEFFFC0EDBCFEDFFD950E6
:10159000FD0FE96EFF0EDA20EA6E030EEE180EE183
:1015A000ED500CE10E01090E741905E1755103E1CE
:1015B000746B756B03D0742B000E75236CD266DAD6
:1015C000040EE126DE6ADD6A020EDB6A030EDB6AC8
:1015D000C8DA0B0E081801E109504CE00A0E081891
:1015E00001E1095039E0090E081801E1095026E02F
:1015F000080E081801E1095013E0030E081848E12D
:10160000095046E1DE6ADD6A06DB01E2BBDA40E34F
:1016100022DA100EE9260E0E0EDAF6E3DB2AF4D7F4
:10162000DE6ADD6AF8DA01E2ADDA32E314DA240EBA
:10163000E9260E0E00DAF6E3DB2AF4D7DE6ADD6A6D
:10164000EADA01E29FDA24E306DA380EE9260E0E22
:10165000F2D9F6E3DB2AF4D7DE6ADD6ADCDA01E2EE
:1016600091DA16E3F8D94C0EE9260E0EE4D9F6E32A
:10167000DB2AF4D7DE6ADD6ACEDA01E283DA08E338
:10168000EAD9600EE9260E0ED6D9F6E3DB2AF4D7A6
:101690000A0E106E116A020EDBCF08F0030EDBCFCC
:1016A00009F010C00DF011C00EF0FCEC0FF008C0F6
:1016B000DEFF09C0DDFF17DA10C0F3FF11C0F4FF31
:1016C000040EE15C02E2E16AE552E16EE4D1010E52
:1016D0000E0107AF02D0D89003D0065D000E075967
:1016E00007E3073508E206510508000E075503E237
:1016F000010E066F076B030EC16E050E061901E1A0
:1017000007511CE0040E061901E1075115E0030E14
:10171000061901E107510EE0020E061901E1075119
:1017200007E0010E06190CE107510AE1200E07D06F
:10173000280E05D02C0E03D0240E01D00C0EC26E44
:101740002C0EC06EC280120041D8F28E12000F0E15
:10175000C16EC290806A926A816A936A826A946A50
:101760009286938093829384938693889298929A98
:10177000F19E1200CB683C0EBD6EBA6E070ECA6EAB
:101780003FDA190EE66EE66A7C0EE66E89EC0FF023
:10179000E552E552E552B886820ED56E0E0ECA6E3F
:1017A0001200F28CD08E9D8A9F8A9D829F820E01AC
:1017B000010E941904E1955102E1F184F288010EC1
:1017C000921903E1935101E1F28A120067EF0BF0E5
:1017D000DACFE4FFE2CFDAFFE9CFE4FFEACFE4FFBC
:1017E000F6CFE4FFF7CFE4FFF5CFE4FFF3CFE4FF5C
:1017F000F4CFE4FFFACFE4FF00EE00F0100EE804AF
:1018000003E3EECFE4FFFBD700EE10F0040EE80494
:1018100003E3EECFE4FFFBD7E6529EA202D072DDD7
:101820009E92F2A402D01DDDF2949EAA08D080827E
:10183000AECF76FE76CEE6FF7EEC00F0E552F2A269
:1018400003D005EC08F0F2928092F28ED08EE55231
:1018500000EE13F0040EE80403E3E5CFEDFFFBD741
:1018600000EE0FF0100EE80403E3E5CFEDFFFBD729
:10187000E5CFFAFFE5CFF4FFE5CFF3FFE5CFF5FFC6
:10188000E5CFF7FFE5CFF6FFE5CFEAFFE5CFE9FFCC
:10189000E5CFDAFF1100FAD8690EE126DF6AD950E8
:1018A000010FE96EDACFEAFFC0D8BFD8BED8BDD8E5
:1018B00058D9150E081801E1095001E190D0140E15
:1018C000081801E1095001E182D00C0E081801E16D
:1018D000095075E00B0E081801E1095068E00A0E86
:1018E000081801E109505BE0070E081801E10950F2
:1018F0004EE0060E081801E1095041E0050E0818F7
:1019000001E1095034E0040E081801E1095027E014
:10191000030E081801E109501AE0020E081801E14F
:1019200009500DE0010E081862E1095060E1C60E91
:10193000E66E1C0EE66E000E6CD8260E57D0470ED3
:10194000E66E1D0EE66E000E64D8480E4FD0B80E3F
:10195000E66E1C0EE66E000E5CD80E0E47D0ED0E45
:10196000E66E1C0EE66E000E54D8150E3FD0020E29
:10197000E66E1D0EE66E000E4CD83A0E37D08B0E7A
:10198000E66E1C0EE66E000E44D82D0E2FD0240EEF
:10199000E66E1C0EE66E000E3CD8670E27D0940E45
:1019A000E66E1D0EE66E000E34D8130E1FD0A80E84
:1019B000E66E1D0EE66E000E2CD8120E17D0BB0E72
:1019C000E66E1D0EE66E000E24D8160E0FD0F10E38
:1019D000E66E1D0EE66E000E1CD8820E07D0D20EEB
:1019E000E66E1D0EE66E000E14D81E0E58D8690E57
:1019F000E15C02E2E16AE552E16E4DD00E018B6FCF
:101A00008C6B460E8A6F540E896F8BCEE6FFEEEF1D
:101A10000DF0E66ED9CFE6FFDACFE6FF46EC10F028
:101A2000106E050EE15E10501200C7D8C6D8EE6ADF
:101A3000EE6ADDEF0DF0EA221250EE24106E135024
:101A4000EE20116E020E10C0DBFF030E11C0DBFF93
:101A5000DF2A010E1200020EDBCF12F0030EDBCFE5
:101A600013F0DECFE9FFDDCFEAFFD890E936EA36A2
:101A70001200E66EE66A0FDFE552E55212008BCEE9
:101A8000E6FF90EC02F0E552E5521200D9CFE6FFF6
:101A9000E1CFD9FF1200E552E7CFD9FF1200E66E81
:101AA000E66AD9CFE6FFDACFE6FF8EEC06F0E55224
:101AB000E552E552E552120074CEE9FF75CEEAFF19
:101AC000D890E936EA361200D9CFE9FFDACFEAFF3B
:101AD0000A0EEE6E0D0EEE6E540EEE6E680EEE6E8B
:101AE000650EFCEF0DF0DECF10F0DDCF11F012002F
:101AF00010C0E6FF11C0E6FFCEEC0FF0E552E55254
:101B0000E552ACEC10F0FE0EDBCF10F0116A1200C3
:101B10000E018B6F8C6BE66E61D8140EE76E881920
:101B2000120010C0E6FF11C0E6FF22EC10F0E552F3
:101B3000E552DF6EDF50F36EFD0EDB50F35C1200FA
:101B4000846F856B2E0EBE6E1200EE6E650EEE6E0D
:101B5000640EEE6E0A0EEE6E0D0EEE6EEE6AEE6A1C
:101B60001200FD0EDBCF08F0FE0EDBCF09F01200F5
:101B7000E66E5FEC10F0E5521200DECFE6FFDDCF3F
:101B8000E6FF120010500908000E11541200ACECD0
:101B900010F0FD0EDBCFE6FFFE0EDBCF10F0116A7A
:101BA0001200320E866F876B300EBB6E1200EE6E27
:101BB000750EEE6E740EFCEF0DF0EE6AEE6AEE6AD4
:101BC000EE6AEE6AEE6AEE6AEE6A1200ACEC10F0B3
:101BD0000EEF0EF013DF8951885D12008CCEE6FF08
:101BE00022EC10F0E552E5520E01886F120041DF41
:101BF0000E018951885D1200EE6E200EEE6E12000D
:101C0000320E0E019DDFD1EF0DF040DF020EE12616
:101C1000DE6ADD6A120067DF113412008ACEE6FF49
:041C20003FEF0DF095
:0C1C24000A0D53797374656D20496E66DB
:101C30006F3A0A0D38204D67687A0A0D31392E3215
:101C4000206B206261756420726174652053657237
:101C500069616C0A0D5049433138463236323020C2
:101C6000436F6E74726F6C6C65720A0D57697265A2
:101C70006C65737320417661696C69626C650A0DED
:101C800000000000000000000000000A0D52657313
:101C9000657420612073657474696E67206475656E
:101CA00020746F20616E20696E76616C69642076A5
:101CB000616C7565210A0D000A526573657474695B
:101CC0006E67210A0D000A0D56723A322E3033200B
:101CD0004F425343202D2D20416C6578616E646521
:101CE00072204C697374204543450A00000A0D5563
:101CF0006E6B6E6F776E20436F6D6D616E64210A3F
:101D000000000A0D546F67676C6520536574746931
:101D10006E67733A0A0D313A44656275670A0D328F
:101D20003A4368617474790A0D333A54696D656F8A
:101D30007574730D0A513A517569740A00000000F8
:101D4000000000000000000A0D566572626F7365A6
:101D50003A0A0D313A53657475700A0D323A53657B
:101D60006C6620446961676E6F73746963730A0DF2
:101D7000333A53797374656D20496E666F0A0D347A
:101D80003A44657369676E0A0D513A517569740A70
:101D9000000000000A0D436861747479204D6F647F
:101DA00065205365743A20000A0D4465627567200A
:101DB0004D6F6465205365743A20000A0D4D6F74B1
:101DC0006F722054696D656F757473205365743A32
:101DD00020000A0D507265737320274327206B651E
:101DE0007920746F20636F6E74696E75653A0A0DA1
:101DF000000A0D54657374696E67206D61746572B5
:101E000069616C20696E2074686973206F72646503
:101E10007220746F207265636965766520636F6EEA
:101E20006669726D6174696F6E733A0A0D4D6F74F5
:101E30006F7220466F72776172642F526576657299
:101E400073653A0A0D536572766F204C6566742F80
:101E500052696768743A0A0D53657269616C205063
:101E60006F72743A0A0D4C6564733A0A0D45455019
:031E70000A0D0058
:0C1E7400200EF66E000EF76E000EF86EE9
:101E80000E010900F550A36F0900F550A46F03E19E
:101E9000A36701D03DD00900F5509E6F0900F550B1
:101EA0009F6F0900F550A06F09000900F550E96E19
:101EB0000900F550EA6E090009000900F550A16F0C
:101EC0000900F550A26F09000900F6CFA5FEF7CF73
:101ED000A6FEF8CFA7FE9ECEF6FF9FCEF7FFA0CEC0
:101EE000F8FF0E01A15302E1A25307E00900F550EB
:101EF000EE6EA107F8E2A207F9D7A5CEF6FFA6CEAF
:101F0000F7FFA7CEF8FF0E01A307000EA45BBFD713
:021F10001200BD
:0E1F1200D9CFE6FFDACFE6FFE1CFD9FFE2CF6D
:101F2000DAFFAC6AAB6AFD0EDBB0AC88DBA202D094
:101F3000AC8CAB8CDBB4AC8EDBA602D0AB8801D012
:101F4000AB8ADBB8AC849E98DBBAAC86DBAC02D043
:101F50009D8A01D09D9A9E9ADBAE02D09D8801D0C9
:101F60009D98FB0EDB50AF6EFB0EFC0EDBCF11F02D
:101F700011C010F0116A1050B06EAC8AAB8E949CF8
:101F8000948EAC50100B04E0AC50800B01E1948CAB
:0C1F9000E552E5CFDAFFE7CFD9FF1200E1
:041F9C00D9CFE6FFB4
:101FA000DACFE6FFE1CFD9FFE2CFDAFFFD0EDBCFDC
:101FB00011F011C010F0030E1114AA6EFF0EE76E9F
:101FC000FC0EDBCF10F0E7501016116A1050A96E0E
:101FD000FB0EDB50A86EA69EA69CA684F29E550E14
:101FE000A76EAA0EA76EA682F28EA694E552E5CF42
:081FF000DAFFE7CFD9FF120070
:081FF800006A0EAE05EF10F0C7
:102000000D6C0E1EE86A0E22001E09AE0DEF10F0D8
:10201000086C091EE86A0922001E76EC10F009BE61
:102020001DEF10F000AE000C086C091EE86A0922D2
:10203000046C051EE86A0522000C00BE14EF10F0C7
:042040000188FF0C08
:0C204400D9CFE6FFDACFE6FFE1CFD9FFED
:10205000E2CFDAFFFD0EDBCF11F011C010F0030E5E
:102060001114AA6EFF0EE76EFC0EDBCF10F0E750E6
:102070001016116A1050A96EA69CA69EA680A850A4
:0C208000E552E5CFDAFFE7CFD9FF1200F0
:04208C00FB0EE3CF95
:10209000F6FFFC0EE3CFF7FFFD0EE3CFF8FFFE0ED9
:1020A000E3CFE9FFFF0EE3CFEAFFE9CFF3FFEACF8B
:0E20B000F4FF0900F5CFEFFFEE66FBD712003C
:0220BE00FF0E13
:1020C000E350156EEF0E01D0F30EE76EE72E66EFCC
:1020D00010F00C0E146EE76AE72E6CEF10F0142E61
:0C20E0006BEF10F0152E64EF10F01200F2
:0420EC00056A046A13
:1020F000100EE76ED89008360936043605360D50B6
:10210000045C0E50055805E30D50045E0E50055A50
:08211000082AE72EF0D71200A7
:082118001DEE00F02DEE00F0B9
:10212000F86A019C3AEC0FF003EC00F017EC00F0B9
:04213000FBD71200C7
:0C213400FF0EE350E84E1200000000D047
:0A21400000D000D0E82EFAD71200FC
:06214A0000EE00F00F0E94
:08215000EE6AEA62FDD71200FD
:06215800A6B2FED7120042
:02215E0000007F
:10216000000000000100000000000000010000006D
:10217000000000000000000000000000000000005F
:10218000000000000000000000000000000000004F
:10219000000000000000000000000000000000003F
:1021A000000000000000000000000000000000002F
:1021B000000000000000000000000000000000001F
:1021C000000000000000000000000000000000000F
:1021D000000000000000000001003B002C003E0059
:1021E0002600320032000054460000000000004784
:0C21F000010000000000010000000000E1
:020000040030CA
:0100010008F6
:0100020019E4
:010003001EDE
:010005008179
:010006008079
:010008000FE8
:01000900C036
:01000A000FE6
:01000B00E014
:01000C000FE4
:01000D0040B2
:00000001FF
